{"abi":[{"type":"function","name":"inc","inputs":[],"outputs":[],"stateMutability":"nonpayable"},{"type":"function","name":"incBy","inputs":[{"name":"by","type":"uint256","internalType":"uint256"}],"outputs":[],"stateMutability":"nonpayable"},{"type":"function","name":"x","inputs":[],"outputs":[{"name":"","type":"uint256","internalType":"uint256"}],"stateMutability":"view"},{"type":"event","name":"Increment","inputs":[{"name":"by","type":"uint256","indexed":false,"internalType":"uint256"}],"anonymous":false}],"bytecode":{"object":"0x60808060405234601557610191908161001a8239f35b5f80fdfe6080806040526004361015610012575f80fd5b5f3560e01c9081630c55699c1461012257508063371303c0146100e9576370119d061461003d575f80fd5b346100e55760203660031901126100e5576004358015610094575f54818101809111610080575f51602061013c5f395f51905f52916020915f55604051908152a1005b634e487b7160e01b5f52601160045260245ffd5b60405162461bcd60e51b815260206004820152602360248201527f696e6342793a20696e6372656d656e742073686f756c6420626520706f73697460448201526269766560e81b6064820152608490fd5b5f80fd5b346100e5575f3660031901126100e5575f545f198114610080576001015f555f51602061013c5f395f51905f52602060405160018152a1005b346100e5575f3660031901126100e5576020905f548152f3fe51af157c2eee40f68107a47a49c32fbbeb0a3c9e5cd37aa56e88e6be92368a81a26469706673582212208a9a2955dcd65def48d9992ea90579012951722d72e64e7ed0d88820e1d2efb664736f6c634300081c0033","linkReferences":{}},"methodIdentifiers":{"inc()":"371303c0","incBy(uint256)":"70119d06","x()":"0c55699c"},"id":0}