{"abi":[{"type":"fallback","stateMutability":"payable"},{"type":"function","name":"getCurrentPrice","inputs":[{"name":"_router","type":"address","internalType":"address"},{"name":"_tokenA","type":"address","internalType":"address"},{"name":"_tokenB","type":"address","internalType":"address"}],"outputs":[{"name":"","type":"uint256","internalType":"uint256"}],"stateMutability":"payable"},{"type":"function","name":"getPairAddress","inputs":[{"name":"_router","type":"address","internalType":"address"},{"name":"tokenA","type":"address","internalType":"address"},{"name":"tokenB","type":"address","internalType":"address"}],"outputs":[{"name":"pair","type":"address","internalType":"address"}],"stateMutability":"pure"},{"type":"function","name":"orders","inputs":[{"name":"","type":"uint256","internalType":"uint256"}],"outputs":[{"name":"","type":"uint256","internalType":"uint256"}],"stateMutability":"view"},{"type":"function","name":"randomNonce","inputs":[],"outputs":[{"name":"","type":"uint256","internalType":"uint256"}],"stateMutability":"view"},{"type":"function","name":"setToPrice","inputs":[{"name":"_router","type":"address","internalType":"address"},{"name":"_token","type":"address","internalType":"address"},{"name":"_price","type":"uint256","internalType":"uint256"},{"name":"orderId","type":"uint256","internalType":"uint256"},{"name":"status","type":"uint256","internalType":"uint256"},{"name":"startTime","type":"uint256","internalType":"uint256"},{"name":"endTime","type":"uint256","internalType":"uint256"}],"outputs":[],"stateMutability":"payable"},{"type":"function","name":"volumeAllBuyThenSell","inputs":[{"name":"_router","type":"address","internalType":"address"},{"name":"_token","type":"address","internalType":"address"},{"name":"_totalAmountBuy","type":"uint256","internalType":"uint256"},{"name":"numLoopsBuy","type":"uint256","internalType":"uint256"},{"name":"numLoopsSell","type":"uint256","internalType":"uint256"}],"outputs":[],"stateMutability":"payable"},{"type":"function","name":"volumeEachBuyThenSell","inputs":[{"name":"_router","type":"address","internalType":"address"},{"name":"_token","type":"address","internalType":"address"},{"name":"_amountEachLoop","type":"uint256","internalType":"uint256"},{"name":"numLoops","type":"uint256","internalType":"uint256"}],"outputs":[],"stateMutability":"payable"},{"type":"function","name":"volumeRandomBuyAndSell","inputs":[{"name":"_router","type":"address","internalType":"address"},{"name":"_token","type":"address","internalType":"address"},{"name":"_totalAmountBuy","type":"uint256","internalType":"uint256"},{"name":"_numLoopsBuy","type":"uint256","internalType":"uint256"}],"outputs":[],"stateMutability":"payable"},{"type":"function","name":"withdrawToken","inputs":[{"name":"_weth","type":"address","internalType":"address"},{"name":"_token","type":"address","internalType":"address"},{"name":"_amount","type":"uint256","internalType":"uint256"}],"outputs":[],"stateMutability":"nonpayable"}],"bytecode":{"object":"0x608080604052346018575f805561177f908161001d8239f35b5f80fdfe608080604052600436101561001057005b5f905f3560e01c90816301e33667146107ec5750806339988a55146107cf578063524d01f81461078857806379e4e4ac1461075057806386e3d3e314610611578063a85c38ef146105e7578063b929b43114610544578063c6702a3d146101265763f9595fc21461007d57005b60a0366003190112610123576100916108f0565b610099610906565b6084359190606435836100ae82604435610d3b565b869283915b8185106100f25750506100c69250610d3b565b845b8481106100d3578580f35b806100eb6100e360019385610cd3565b51858761145d565b50016100c8565b916001919350610117906101116101098786610cd3565b51888a610f2a565b90610ce7565b930192909186926100b3565b80fd5b5060e03660031901126101235761013b6108f0565b90610144610906565b604435906064356084359080855260016020528160408620541461050b5760a435421015806104ff575b156104cb5784526001602052604084205560018060a01b0384166040516315ab88c960e31b8152602081600481855afa9081156104a1576004929160609187916104ac575b506001600160a01b03906101c99086908a6109eb565b1660405193848092630240bc6b60e21b82525afa9182156104a1578590869361046c575b506001600160701b03928316949216916102078584610b4f565b96670de0b6b3a7640000880297808904670de0b6b3a764000014901517156104585761023c61023783899a610b62565b611686565b916040516315ab88c960e31b8152602081600481885afa90811561044d57829161026f918b9161042e575b508885610b6c565b111561038157506040516315ab88c960e31b8152602081600481875afa928315610376576020976044966102ca9589948c91610349575b506001600160a01b038581169116101561033e57506102c4916109bf565b9161145d565b505b60405163095ea7b360e01b815260048101919091525f1960248201529384928391906001600160a01b03165af1801561033357610307575080f35b6103289060203d60201161032c575b6103208183610970565b8101906109a7565b5080f35b503d610316565b6040513d84823e3d90fd5b90506102c4916109bf565b61036991508b3d8d1161036f575b6103618183610970565b8101906109cc565b5f6102a6565b503d610357565b6040513d8a823e3d90fd5b6103ab9192506103a5670de0b6b3a7640000916103a089889a98610b4f565b610b4f565b04611686565b906040516315ab88c960e31b8152602081600481875afa928315610376576020976044966104009589948c91610411575b506001600160a01b038581169116101561040657506103fa916109bf565b91610f2a565b506102cc565b90506103fa916109bf565b61042891508b3d8d1161036f576103618183610970565b5f6103dc565b610447915060203d60201161036f576103618183610970565b5f610267565b6040513d8b823e3d90fd5b634e487b7160e01b87526011600452602487fd5b905061049191925060603d60601161049a575b6104898183610970565b810190610b19565b5091905f6101ed565b503d61047f565b6040513d87823e3d90fd5b6104c5915060203d60201161036f576103618183610970565b5f6101b3565b60405162461bcd60e51b815260206004820152600c60248201526b496e76616c69642074696d6560a01b6044820152606490fd5b5060c43542111561016e565b60405162461bcd60e51b815260206004820152601160248201527013dc99195c88185b1c9958591e481cd95d607a1b6044820152606490fd5b5061054e36610932565b60405163095ea7b360e01b81526001600160a01b0380861660048301525f1960248301529194939291602090829060449082908a9088165af180156105dc576105bf575b50845b8481106105a0578580f35b6001906105b86105b1848688610f2a565b858761145d565b5001610595565b6105d79060203d60201161032c576103208183610970565b610592565b6040513d88823e3d90fd5b50346101235760203660031901126101235760406020916004358152600183522054604051908152f35b5061062761061e36610932565b80939491610d3b565b8492859160028015915b83851061065757505050505081610646578380f35b61064f9261145d565b505f80808380f35b90919293956106759061011161066d8985610cd3565b51888b610f2a565b9588805460405161069e816106906020820194334287610d0b565b03601f198101835282610970565b51902060019161073c578561072857849006156106c3575b5060010193929190610631565b90965f546040516106de816106906020820194334287610d0b565b51902091810190818111610714576106fb61070d92600194610d31565b90610707828a8d61145d565b506109bf565b96906106b6565b634e487b7160e01b5f52601160045260245ffd5b634e487b7160e01b5f52601260045260245ffd5b634e487b7160e01b8b52601160045260248bfd5b50606036600319011261012357602061078061076a6108f0565b610772610906565b61077a61091c565b91610b6c565b604051908152f35b50346101235760603660031901126101235760206107bd6107a76108f0565b6107af610906565b6107b761091c565b916109eb565b6040516001600160a01b039091168152f35b503461012357806003193601126101235760209054604051908152f35b82346108bb5760603660031901126108bb576108066108f0565b61080e610906565b60443593906001600160a01b0316806108bf575050478311610859575b508080808094818115610850575b3390f1156108445780f35b604051903d90823e3d90fd5b506108fc610839565b6001600160a01b031661086c47846109bf565b813b156108bb575f91602483926040519485938492632e1a7d4d60e01b845260048401525af180156108b0571561082b576108a991505f90610970565b5f8261082b565b6040513d5f823e3d90fd5b5f80fd5b60209250815f60449282969763a9059cbb60e01b845233600485015260248401525af180156108b057610307575080f35b600435906001600160a01b03821682036108bb57565b602435906001600160a01b03821682036108bb57565b604435906001600160a01b03821682036108bb57565b60809060031901126108bb576004356001600160a01b03811681036108bb57906024356001600160a01b03811681036108bb57906044359060643590565b601f909101601f19168101906001600160401b0382119082101761099357604052565b634e487b7160e01b5f52604160045260245ffd5b908160209103126108bb575180151581036108bb5790565b9190820391821161071457565b908160209103126108bb57516001600160a01b03811681036108bb5790565b600492916001600160a01b038084169082161015610afc5760209092915b60405163c45a015560e01b815294859182906001600160a01b03165afa9283156108b0575f93610adb575b506040516001600160601b0319606093841b8116602083019081529290931b90921660348301526028825290610a6b604882610970565b5190209060405191602083019160ff60f81b835260018060601b03199060601b16602184015260358301527f96e8ac4277198ff8b6f785478aa9a39f403cb768dd02cbee326c3e7da348845f605583015260558252610acb607583610970565b905190206001600160a01b031690565b610af591935060203d60201161036f576103618183610970565b915f610a34565b90602090610a09565b51906001600160701b03821682036108bb57565b908160609103126108bb57610b2d81610b05565b916040610b3c60208401610b05565b92015163ffffffff811681036108bb5790565b8181029291811591840414171561071457565b8115610728570490565b916004916060906001600160a01b0390610b88908490876109eb565b1660405193848092630240bc6b60e21b82525afa9182156108b0575f905f93610c78575b506040516315ab88c960e31b81526001600160701b03938416949390911692602090829060049082906001600160a01b03165afa9081156108b0575f91610c59575b506001600160a01b03918216911603610c2e57670de0b6b3a7640000820291808304670de0b6b3a7640000149015171561071457610c2b91610b62565b90565b90670de0b6b3a7640000820291808304670de0b6b3a7640000149015171561071457610c2b91610b62565b610c72915060203d60201161036f576103618183610970565b5f610bee565b6020935060049150610c989060603d60601161049a576104898183610970565b5093909150610bac565b805115610caf5760200190565b634e487b7160e01b5f52603260045260245ffd5b805160011015610caf5760400190565b8051821015610caf5760209160051b010190565b9190820180921161071457565b6001600160401b0381116109935760051b60200190565b90815260609190911b6001600160601b0319166020820152603481019190915260540190565b8115610728570690565b91909182151580610e54575b15610e1f57610d5583610cf4565b90610d636040519283610970565b838252601f19610d7285610cf4565b01366020840137925f935b5f1982018281116107145780861015610e0157610d9d86610da3926109bf565b826109bf565b90610dca5f54926040516020810190610dc28161069088334287610d0b565b519020610d31565b6001810180911161071457610dea9181610de48988610cd3565b526109bf565b945f1982146107145760018092015f550193610d7d565b50919293505f19810190811161071457610e1b9083610cd3565b5290565b60405162461bcd60e51b815260206004820152600d60248201526c125b9d985b1a59081a5b9c1d5d609a1b6044820152606490fd5b5082811015610d47565b6020818303126108bb578051906001600160401b0382116108bb57019080601f830112156108bb578151610e9181610cf4565b92610e9f6040519485610970565b81845260208085019260051b8201019283116108bb57602001905b828210610ec75750505090565b8151815260209182019101610eba565b90602080835192838152019201905f5b818110610ef45750505090565b82516001600160a01b0316845260209384019390920191600101610ee7565b604090610c2b939281528160208201520190610ed7565b604051925f9290916001600160a01b031690610f47606086610970565b6002855260403660208701376040516315ab88c960e31b8152602081600481865afa9081156108b0575f9161122c575b50610f8186610ca2565b6001600160a01b039091169052610f9785610cc3565b6001600160a01b039091169081905260405163d06ca61f60e01b81525f8180610fc4898860048401610f13565b0381865afa80156108b057610fe0915f9161120a575b50610cc3565b519461101086604051610ff4604082610970565b600a815269105b5bdd5b9d081bdd5d60b21b60208201526116db565b6040516370a0823160e01b815230600482015292602084602481865afa9384156108b0575f946111d6575b506103e842019182421161071457813b156108bb575f91611081918760405180968195829463b6f9de9560e01b8452886004850152608060248501526084840190610ed7565b90306044840152606483015203925af180156108b0576111c0575b506020602491604051928380926370a0823160e01b82523060048301525afa938415610844579361118a575b5061113a61116091610c2b94611104816040516110e6604082610970565b600c81526b3130b630b731b2a0b33a32b960a11b60208201526116db565b61113582604051611116604082610970565b600d81526c62616c616e63654265666f726560981b60208201526116db565b6109bf565b604051611148604082610970565b6006815265185b5bdd5b9d60d21b60208201526116db565b60405161116e604082610970565b600a815269109d5e48185b5bdd5b9d60b21b60208201526116db565b92506020833d6020116111b8575b816111a560209383610970565b810103126108bb5791519161113a6110c8565b3d9150611198565b6111cd9194505f90610970565b5f92602061109c565b9093506020813d602011611202575b816111f260209383610970565b810103126108bb5751925f61103b565b3d91506111e5565b61122691503d805f833e61121e8183610970565b810190610e5e565b5f610fda565b611245915060203d60201161036f576103618183610970565b5f610f77565b6040516001600160a01b039190911691611266606083610970565b6002825260403660208401376040516315ab88c960e31b8152602081600481875afa9081156108b0575f9161143e575b506112a083610ca2565b6001600160a01b0390911690526112b682610cc3565b6001600160a01b03909116908190526040516307c0329d60e21b81525f81806112e3868960048401610f13565b0381875afa80156108b0576113046020916024935f91611424575b50610ca2565b519261133184604051611318604082610970565b600881526730b6b7bab73a24b760c11b858201526116db565b6040516370a0823160e01b815230600482015292839182905afa80156108b0575f906113f0575b611384915060405161136b604082610970565b600781526662616c616e636560c81b60208201526116db565b6103e842019283421161071457803b156108bb575f926113c89260405180968195829463b6f9de9560e01b84528a6004850152608060248501526084840190610ed7565b90306044840152606483015203925af180156108b0576113e6575090565b5f610c2b91610970565b506020813d60201161141c575b8161140a60209383610970565b810103126108bb576113849051611358565b3d91506113fd565b61143891503d805f833e61121e8183610970565b5f6112fe565b611457915060203d60201161036f576103618183610970565b5f611296565b6040516001600160a01b038216929091611478606084610970565b60028352604036602085013761148d83610ca2565b6001600160a01b038316908190526040516315ab88c960e31b8152909290602081600481895afa9081156108b0575f91611667575b506114cc85610cc3565b6001600160a01b0390911690526040516370a0823160e01b8152306004820152602081602481875afa80156108b05787915f91611632575b50106115b3575b505060405163d06ca61f60e01b815290505f818061152d858860048401610f13565b0381865afa80156108b057611548915f9161120a5750610cc3565b51926103e842019283421161071457803b156108bb575f9283611595936040519687958694859363791ac94760e01b855260048501528a602485015260a0604485015260a4840190610ed7565b90306064840152608483015203925af180156108b0576113e6575090565b6020602493604051948580926370a0823160e01b82523060048301525afa9283156108b0575f936115fc575b506115ed6115f393876109bf565b9161124b565b505f808061150b565b92506020833d60201161162a575b8161161760209383610970565b810103126108bb579151916115ed6115df565b3d915061160a565b9150506020813d60201161165f575b8161164e60209383610970565b810103126108bb578690515f611504565b3d9150611641565b611680915060203d60201161036f576103618183610970565b5f6114c2565b905f60038311156116ce5750818060011c6001810180911161071457905b8382106116af575050565b9092506116c5836116c08184610b62565b610ce7565b60011c906116a4565b916116d557565b60019150565b5f919060206117366084859460405193849181830196632d839cb360e21b8852604060248501528051928391826064870152018585015e878483850101526044830152601f801991011681010301601f198101835282610970565b51906a636f6e736f6c652e6c6f675afa5056fea264697066735822122058f37a26e94b61bac87ecccbbd6d8d19fbe613245b65296a75290f11f2c5ef5164736f6c634300081c0033","linkReferences":{}},"methodIdentifiers":{"getCurrentPrice(address,address,address)":"79e4e4ac","getPairAddress(address,address,address)":"524d01f8","orders(uint256)":"a85c38ef","randomNonce()":"39988a55","setToPrice(address,address,uint256,uint256,uint256,uint256,uint256)":"c6702a3d","volumeAllBuyThenSell(address,address,uint256,uint256,uint256)":"f9595fc2","volumeEachBuyThenSell(address,address,uint256,uint256)":"b929b431","volumeRandomBuyAndSell(address,address,uint256,uint256)":"86e3d3e3","withdrawToken(address,address,uint256)":"01e33667"},"id":1}