{
  "_format": "hh3-artifact-1",
  "contractName": "Dex",
  "sourceName": "contracts/Dex.sol",
  "abi": [
    {
      "stateMutability": "payable",
      "type": "fallback"
    },
    {
      "inputs": [
        {
          "internalType": "address",
          "name": "_router",
          "type": "address"
        },
        {
          "internalType": "address",
          "name": "_tokenA",
          "type": "address"
        },
        {
          "internalType": "address",
          "name": "_tokenB",
          "type": "address"
        }
      ],
      "name": "getCurrentPrice",
      "outputs": [
        {
          "internalType": "uint256",
          "name": "",
          "type": "uint256"
        }
      ],
      "stateMutability": "payable",
      "type": "function"
    },
    {
      "inputs": [
        {
          "internalType": "address",
          "name": "_router",
          "type": "address"
        },
        {
          "internalType": "address",
          "name": "tokenA",
          "type": "address"
        },
        {
          "internalType": "address",
          "name": "tokenB",
          "type": "address"
        }
      ],
      "name": "getPairAddress",
      "outputs": [
        {
          "internalType": "address",
          "name": "pair",
          "type": "address"
        }
      ],
      "stateMutability": "pure",
      "type": "function"
    },
    {
      "inputs": [
        {
          "internalType": "uint256",
          "name": "",
          "type": "uint256"
        }
      ],
      "name": "orders",
      "outputs": [
        {
          "internalType": "uint256",
          "name": "",
          "type": "uint256"
        }
      ],
      "stateMutability": "view",
      "type": "function"
    },
    {
      "inputs": [],
      "name": "randomNonce",
      "outputs": [
        {
          "internalType": "uint256",
          "name": "",
          "type": "uint256"
        }
      ],
      "stateMutability": "view",
      "type": "function"
    },
    {
      "inputs": [
        {
          "internalType": "address",
          "name": "_router",
          "type": "address"
        },
        {
          "internalType": "address",
          "name": "_token",
          "type": "address"
        },
        {
          "internalType": "uint256",
          "name": "_price",
          "type": "uint256"
        },
        {
          "internalType": "uint256",
          "name": "orderId",
          "type": "uint256"
        },
        {
          "internalType": "uint256",
          "name": "status",
          "type": "uint256"
        },
        {
          "internalType": "uint256",
          "name": "startTime",
          "type": "uint256"
        },
        {
          "internalType": "uint256",
          "name": "endTime",
          "type": "uint256"
        }
      ],
      "name": "setToPrice",
      "outputs": [],
      "stateMutability": "payable",
      "type": "function"
    },
    {
      "inputs": [
        {
          "internalType": "address",
          "name": "_router",
          "type": "address"
        },
        {
          "internalType": "address",
          "name": "_token",
          "type": "address"
        },
        {
          "internalType": "uint256",
          "name": "_totalAmountBuy",
          "type": "uint256"
        },
        {
          "internalType": "uint256",
          "name": "numLoopsBuy",
          "type": "uint256"
        },
        {
          "internalType": "uint256",
          "name": "numLoopsSell",
          "type": "uint256"
        }
      ],
      "name": "volumeAllBuyThenSell",
      "outputs": [],
      "stateMutability": "payable",
      "type": "function"
    },
    {
      "inputs": [
        {
          "internalType": "address",
          "name": "_router",
          "type": "address"
        },
        {
          "internalType": "address",
          "name": "_token",
          "type": "address"
        },
        {
          "internalType": "uint256",
          "name": "_amountEachLoop",
          "type": "uint256"
        },
        {
          "internalType": "uint256",
          "name": "numLoops",
          "type": "uint256"
        }
      ],
      "name": "volumeEachBuyThenSell",
      "outputs": [],
      "stateMutability": "payable",
      "type": "function"
    },
    {
      "inputs": [
        {
          "internalType": "address",
          "name": "_router",
          "type": "address"
        },
        {
          "internalType": "address",
          "name": "_token",
          "type": "address"
        },
        {
          "internalType": "uint256",
          "name": "_totalAmountBuy",
          "type": "uint256"
        },
        {
          "internalType": "uint256",
          "name": "_numLoopsBuy",
          "type": "uint256"
        }
      ],
      "name": "volumeRandomBuyAndSell",
      "outputs": [],
      "stateMutability": "payable",
      "type": "function"
    },
    {
      "inputs": [
        {
          "internalType": "address",
          "name": "_weth",
          "type": "address"
        },
        {
          "internalType": "address",
          "name": "_token",
          "type": "address"
        },
        {
          "internalType": "uint256",
          "name": "_amount",
          "type": "uint256"
        }
      ],
      "name": "withdrawToken",
      "outputs": [],
      "stateMutability": "nonpayable",
      "type": "function"
    }
  ],
  "bytecode": "0x60806040525f5f553480156011575f5ffd5b506119cc8061001f5f395ff3fe608060405260043610610082575f3560e01c806386e3d3e31161005557806386e3d3e314610114578063a85c38ef14610127578063b929b43114610152578063c6702a3d14610165578063f9595fc21461017857005b806301e336671461008457806339988a55146100a3578063524d01f8146100ca57806379e4e4ac14610101575b005b34801561008f575f5ffd5b5061008261009e3660046114cb565b61018b565b3480156100ae575f5ffd5b506100b75f5481565b6040519081526020015b60405180910390f35b3480156100d5575f5ffd5b506100e96100e4366004611509565b6102a4565b6040516001600160a01b0390911681526020016100c1565b6100b761010f366004611509565b6103e7565b610082610122366004611551565b61052a565b348015610132575f5ffd5b506100b7610141366004611594565b60016020525f908152604090205481565b610082610160366004611551565b6105d4565b6100826101733660046115ab565b610679565b610082610186366004611608565b610aa3565b6001600160a01b0382166102365747811115610206576001600160a01b038316632e1a7d4d6101ba4784611669565b6040518263ffffffff1660e01b81526004016101d891815260200190565b5f604051808303815f87803b1580156101ef575f5ffd5b505af1158015610201573d5f5f3e3d5ffd5b505050505b604051339082156108fc029083905f818181858888f19350505050158015610230573d5f5f3e3d5ffd5b50505050565b60405163a9059cbb60e01b8152336004820152602481018290526001600160a01b0383169063a9059cbb906044016020604051808303815f875af1158015610280573d5f5f3e3d5ffd5b505050506040513d601f19601f82011682018060405250810190610230919061167c565b5f5f5f836001600160a01b0316856001600160a01b0316106102c75783856102ca565b84845b91509150856001600160a01b031663c45a01556040518163ffffffff1660e01b8152600401602060405180830381865afa15801561030a573d5f5f3e3d5ffd5b505050506040513d601f19601f8201168201806040525081019061032e919061169b565b6040516001600160601b0319606085811b8216602084015284901b166034820152604801604051602081830303815290604052805190602001206040516020016103c59291906001600160f81b0319815260609290921b6001600160601b031916600183015260158201527f96e8ac4277198ff8b6f785478aa9a39f403cb768dd02cbee326c3e7da348845f603582015260550190565b60408051601f1981840301815291905280516020909101209695505050505050565b5f83816103f58286866102a4565b90505f5f826001600160a01b0316630902f1ac6040518163ffffffff1660e01b8152600401606060405180830381865afa158015610435573d5f5f3e3d5ffd5b505050506040513d601f19601f8201168201806040525081019061045991906116cc565b506001600160701b031691506001600160701b03169150836001600160a01b031663ad5c46486040518163ffffffff1660e01b8152600401602060405180830381865afa1580156104ac573d5f5f3e3d5ffd5b505050506040513d601f19601f820116820180604052508101906104d0919061169b565b6001600160a01b0316866001600160a01b03160361051057816104fb82670de0b6b3a764000061170d565b6105059190611738565b945050505050610523565b806104fb83670de0b6b3a764000061170d565b9392505050565b5f6105358383610b36565b90505f805b838110156105b8575f610569888886858151811061055a5761055a61174b565b60200260200101516001610ce7565b9050610575818461175f565b92506105825f6001611098565b5f036105af575f6105935f85611098565b90506105a0898983611107565b506105ab8185611669565b9350505b5060010161053a565b5080156105cc576105ca868683611107565b505b505050505050565b60405163095ea7b360e01b81526001600160a01b0380861660048301525f19602483015285919085169063095ea7b3906044016020604051808303815f875af1158015610623573d5f5f3e3d5ffd5b505050506040513d601f19601f82011682018060405250810190610647919061167c565b505f5b828110156105cc575f6106608787876001610ce7565b90505f61066e888884611107565b50505060010161064a565b5f848152600160205260409020548390036106cf5760405162461bcd60e51b815260206004820152601160248201527013dc99195c88185b1c9958591e481cd95d607a1b60448201526064015b60405180910390fd5b8142101580156106df5750804211155b61071a5760405162461bcd60e51b815260206004820152600c60248201526b496e76616c69642074696d6560a01b60448201526064016106c6565b5f84815260016020908152604080832086905580516315ab88c960e31b815290518a939261079d9285926001600160a01b0384169263ad5c464892600480820193918290030181865afa158015610773573d5f5f3e3d5ffd5b505050506040513d601f19601f82011682018060405250810190610797919061169b565b8a6102a4565b90505f5f826001600160a01b0316630902f1ac6040518163ffffffff1660e01b8152600401606060405180830381865afa1580156107dd573d5f5f3e3d5ffd5b505050506040513d601f19601f8201168201806040525081019061080191906116cc565b506001600160701b0391821693501690505f6108428a610821848661170d565b61083390670de0b6b3a764000061170d565b61083d9190611738565b6113d5565b90505f6108aa8d8d886001600160a01b031663ad5c46486040518163ffffffff1660e01b8152600401602060405180830381865afa158015610886573d5f5f3e3d5ffd5b505050506040513d601f19601f8201168201806040525081019061010f919061169b565b90508a81111561095a575f8c6001600160a01b0316876001600160a01b031663ad5c46486040518163ffffffff1660e01b8152600401602060405180830381865afa1580156108fb573d5f5f3e3d5ffd5b505050506040513d601f19601f8201168201806040525081019061091f919061169b565b6001600160a01b03161061093c576109378584611669565b610946565b6109468484611669565b90506109538e8e83611107565b5050610a23565b5f61097c670de0b6b3a76400008d610972878961170d565b610833919061170d565b90505f8d6001600160a01b0316886001600160a01b031663ad5c46486040518163ffffffff1660e01b8152600401602060405180830381865afa1580156109c5573d5f5f3e3d5ffd5b505050506040513d601f19601f820116820180604052508101906109e9919061169b565b6001600160a01b031610610a0657610a018583611669565b610a10565b610a108683611669565b9050610a1f8f8f836001610ce7565b5050505b60405163095ea7b360e01b81526001600160a01b0387811660048301525f1960248301528d169063095ea7b3906044016020604051808303815f875af1158015610a6f573d5f5f3e3d5ffd5b505050506040513d601f19601f82011682018060405250810190610a93919061167c565b5050505050505050505050505050565b5f610aae8484610b36565b90505f805b84811015610ae657610ad2888885848151811061055a5761055a61174b565b610adc908361175f565b9150600101610ab3565b505f610af28285610b36565b90505f5b84811015610b2b57610b228989848481518110610b1557610b1561174b565b6020026020010151611107565b50600101610af6565b505050505050505050565b60605f82118015610b475750818310155b610b835760405162461bcd60e51b815260206004820152600d60248201526c125b9d985b1a59081a5b9c1d5d609a1b60448201526064016106c6565b5f8267ffffffffffffffff811115610b9d57610b9d611772565b604051908082528060200260200182016040528015610bc6578160200160208202803683370190505b509050835f805b610bd8600187611669565b811015610cb2575f81610bec600189611669565b610bf69190611669565b610c009085611669565b90505f8142335f54604051602001610c389392919092835260609190911b6001600160601b0319166020830152603482015260540190565b604051602081830303815290604052805190602001205f1c610c5a9190611786565b610c6590600161175f565b905080868481518110610c7a57610c7a61174b565b6020908102919091010152610c8f8186611669565b5f805491965080610c9f83611799565b909155505060019092019150610bcd9050565b508183610cc0600188611669565b81518110610cd057610cd061174b565b602090810291909101015250909150505b92915050565b6040805160028082526060820183525f92879284929091602083019080368337019050509050816001600160a01b031663ad5c46486040518163ffffffff1660e01b8152600401602060405180830381865afa158015610d49573d5f5f3e3d5ffd5b505050506040513d601f19601f82011682018060405250810190610d6d919061169b565b815f81518110610d7f57610d7f61174b565b60200260200101906001600160a01b031690816001600160a01b0316815250508581600181518110610db357610db361174b565b6001600160a01b0390921660209283029190910190910152831515600103610edb5760405163d06ca61f60e01b81525f906001600160a01b0384169063d06ca61f90610e0590899086906004016117f4565b5f60405180830381865afa158015610e1f573d5f5f3e3d5ffd5b505050506040513d5f823e601f3d908101601f19168201604052610e46919081019061180c565b600181518110610e5857610e5861174b565b60200260200101519050826001600160a01b031663b6f9de9587838530426103e8610e83919061175f565b6040518663ffffffff1660e01b8152600401610ea294939291906118d4565b5f604051808303818588803b158015610eb9575f5ffd5b505af1158015610ecb573d5f5f3e3d5ffd5b5050505050809350505050611090565b6040516307c0329d60e21b81525f906001600160a01b03841690631f00ca7490610f0b90899086906004016117f4565b5f60405180830381865afa158015610f25573d5f5f3e3d5ffd5b505050506040513d5f823e601f3d908101601f19168201604052610f4c919081019061180c565b5f81518110610f5d57610f5d61174b565b60200260200101519050610f916040518060400160405280600881526020016730b6b7bab73a24b760c11b81525082611443565b604080518082018252600781526662616c616e636560c81b602082015290516370a0823160e01b815230600482015261101d91906001600160a01b038a16906370a0823190602401602060405180830381865afa158015610ff4573d5f5f3e3d5ffd5b505050506040513d601f19601f820116820180604052508101906110189190611908565b611443565b6001600160a01b03831663b6f9de958288853061103c426103e861175f565b6040518663ffffffff1660e01b815260040161105b94939291906118d4565b5f604051808303818588803b158015611072575f5ffd5b505af1158015611084573d5f5f3e3d5ffd5b50505050508593505050505b949350505050565b5f826110a48184611669565b6110af90600161175f565b5f54604080514260208201526001600160601b03193360601b16918101919091526054810191909152607401604051602081830303815290604052805190602001205f1c6110fd9190611786565b610523919061175f565b6040805160028082526060820183525f9286928492909160208301908036833701905050905084815f815181106111405761114061174b565b60200260200101906001600160a01b031690816001600160a01b031681525050816001600160a01b031663ad5c46486040518163ffffffff1660e01b8152600401602060405180830381865afa15801561119c573d5f5f3e3d5ffd5b505050506040513d601f19601f820116820180604052508101906111c0919061169b565b816001815181106111d3576111d361174b565b6001600160a01b0392831660209182029290920101526040516370a0823160e01b815230600482015285918716906370a0823190602401602060405180830381865afa158015611225573d5f5f3e3d5ffd5b505050506040513d601f19601f820116820180604052508101906112499190611908565b10156112cf576040516370a0823160e01b81523060048201526112cd90879087906001600160a01b038216906370a0823190602401602060405180830381865afa158015611299573d5f5f3e3d5ffd5b505050506040513d601f19601f820116820180604052508101906112bd9190611908565b6112c79088611669565b5f610ce7565b505b60405163d06ca61f60e01b81525f906001600160a01b0384169063d06ca61f906112ff90889086906004016117f4565b5f60405180830381865afa158015611319573d5f5f3e3d5ffd5b505050506040513d5f823e601f3d908101601f19168201604052611340919081019061180c565b6001815181106113525761135261174b565b60200260200101519050826001600160a01b031663791ac94786838530426103e861137d919061175f565b6040518663ffffffff1660e01b815260040161139d95949392919061191f565b5f604051808303815f87803b1580156113b4575f5ffd5b505af11580156113c6573d5f5f3e3d5ffd5b50929998505050505050505050565b5f60038211156114345750805f6113ed600283611738565b6113f890600161175f565b90505b8181101561142e579050806002816114138186611738565b61141d919061175f565b6114279190611738565b90506113fb565b50919050565b811561143e575060015b919050565b611488828260405160240161145992919061195a565b60408051601f198184030181529190526020810180516001600160e01b0316632d839cb360e21b17905261148c565b5050565b61149581611498565b50565b5f6a636f6e736f6c652e6c6f6790505f5f835160208501845afa505050565b6001600160a01b0381168114611495575f5ffd5b5f5f5f606084860312156114dd575f5ffd5b83356114e8816114b7565b925060208401356114f8816114b7565b929592945050506040919091013590565b5f5f5f6060848603121561151b575f5ffd5b8335611526816114b7565b92506020840135611536816114b7565b91506040840135611546816114b7565b809150509250925092565b5f5f5f5f60808587031215611564575f5ffd5b843561156f816114b7565b9350602085013561157f816114b7565b93969395505050506040820135916060013590565b5f602082840312156115a4575f5ffd5b5035919050565b5f5f5f5f5f5f5f60e0888a0312156115c1575f5ffd5b87356115cc816114b7565b965060208801356115dc816114b7565b96999698505050506040850135946060810135946080820135945060a0820135935060c0909101359150565b5f5f5f5f5f60a0868803121561161c575f5ffd5b8535611627816114b7565b94506020860135611637816114b7565b94979496505050506040830135926060810135926080909101359150565b634e487b7160e01b5f52601160045260245ffd5b81810381811115610ce157610ce1611655565b5f6020828403121561168c575f5ffd5b81518015158114610523575f5ffd5b5f602082840312156116ab575f5ffd5b8151610523816114b7565b80516001600160701b038116811461143e575f5ffd5b5f5f5f606084860312156116de575f5ffd5b6116e7846116b6565b92506116f5602085016116b6565b9150604084015163ffffffff81168114611546575f5ffd5b8082028115828204841417610ce157610ce1611655565b634e487b7160e01b5f52601260045260245ffd5b5f8261174657611746611724565b500490565b634e487b7160e01b5f52603260045260245ffd5b80820180821115610ce157610ce1611655565b634e487b7160e01b5f52604160045260245ffd5b5f8261179457611794611724565b500690565b5f600182016117aa576117aa611655565b5060010190565b5f8151808452602084019350602083015f5b828110156117ea5781516001600160a01b03168652602095860195909101906001016117c3565b5093949350505050565b828152604060208201525f61109060408301846117b1565b5f6020828403121561181c575f5ffd5b815167ffffffffffffffff811115611832575f5ffd5b8201601f81018413611842575f5ffd5b805167ffffffffffffffff81111561185c5761185c611772565b8060051b604051601f19603f830116810181811067ffffffffffffffff8211171561188957611889611772565b6040529182526020818401810192908101878411156118a6575f5ffd5b6020850194505b838510156118c9578451808252602095860195909350016118ad565b509695505050505050565b848152608060208201525f6118ec60808301866117b1565b6001600160a01b03949094166040830152506060015292915050565b5f60208284031215611918575f5ffd5b5051919050565b85815284602082015260a060408201525f61193d60a08301866117b1565b6001600160a01b0394909416606083015250608001529392505050565b604081525f83518060408401528060208601606085015e5f606082850101526060601f19601f830116840101915050826020830152939250505056fea2646970667358221220c1b15dd7bc63e8fc75a2e557c2f57b5182173a7edf3230ae62c2012970a3c5a964736f6c634300081c0033",
  "linkReferences": {},
  "deployedLinkReferences": {},
  "immutableReferences": {},
  "inputSourceName": "contracts/Dex.sol",
  "buildInfoId": "975c16ce4ab1879fabfb083e23296bf97658fe98"
}