{
  "_format": "hh3-artifact-1",
  "contractName": "Dex",
  "sourceName": "contracts/Dex.sol",
  "abi": [
    {
      "inputs": [
        {
          "internalType": "address",
          "name": "_dexRouter",
          "type": "address"
        }
      ],
      "stateMutability": "nonpayable",
      "type": "constructor"
    },
    {
      "inputs": [],
      "name": "dexRouter",
      "outputs": [
        {
          "internalType": "address",
          "name": "",
          "type": "address"
        }
      ],
      "stateMutability": "view",
      "type": "function"
    },
    {
      "inputs": [
        {
          "internalType": "address",
          "name": "_token",
          "type": "address"
        }
      ],
      "name": "swap",
      "outputs": [],
      "stateMutability": "payable",
      "type": "function"
    }
  ],
  "bytecode": "0x6080604052348015600e575f5ffd5b50604051610e15380380610e15833981016040819052602b91604e565b5f80546001600160a01b0319166001600160a01b03929092169190911790556079565b5f60208284031215605d575f5ffd5b81516001600160a01b03811681146072575f5ffd5b9392505050565b610d8f806100865f395ff3fe608060405260043610610028575f3560e01c806303438dd01461002c5780630758d92414610041575b5f5ffd5b61003f61003a366004610a75565b61007b565b005b34801561004c575f5ffd5b505f5461005f906001600160a01b031681565b6040516001600160a01b03909116815260200160405180910390f35b6040805180820190915260088152675377617070696e6760c01b60208201525f546100af91906001600160a01b031661096e565b5f546040805180820190915260088152675377617070696e6760c01b60208201526001600160a01b03909116906100e5906109b7565b6040805160028082526060820183525f92602083019080368337019050509050816001600160a01b031663ad5c46486040518163ffffffff1660e01b8152600401602060405180830381865afa158015610141573d5f5f3e3d5ffd5b505050506040513d601f19601f820116820180604052508101906101659190610aab565b815f8151811061017757610177610ac6565b60200260200101906001600160a01b031690816001600160a01b03168152505082816001815181106101ab576101ab610ac6565b6001600160a01b03928316602091820292909201015260405163d06ca61f60e01b81525f9184169063d06ca61f906101e99034908690600401610b1d565b5f60405180830381865afa158015610203573d5f5f3e3d5ffd5b505050506040513d5f823e601f3d908101601f1916820160405261022a9190810190610b3d565b905061027b6040518060400160405280601381526020017222bc3832b1ba32b21030b6b7bab73a27baba1d60691b8152508260018151811061026e5761026e610ac6565b60200260200101516109fd565b6001600160a01b03831663b6f9de95345f853061029a426103e8610c05565b6040518663ffffffff1660e01b81526004016102b99493929190610c2a565b5f604051808303818588803b1580156102d0575f5ffd5b505af11580156102e2573d5f5f3e3d5ffd5b505f9350600292506102f2915050565b60405190808252806020026020018201604052801561031b578160200160208202803683370190505b50905084815f8151811061033157610331610ac6565b60200260200101906001600160a01b031690816001600160a01b031681525050836001600160a01b031663ad5c46486040518163ffffffff1660e01b8152600401602060405180830381865afa15801561038d573d5f5f3e3d5ffd5b505050506040513d601f19601f820116820180604052508101906103b19190610aab565b816001815181106103c4576103c4610ac6565b6001600160a01b0392831660209182029290920101526040516370a0823160e01b81523060048201529086169063095ea7b390869083906370a0823190602401602060405180830381865afa15801561041f573d5f5f3e3d5ffd5b505050506040513d601f19601f820116820180604052508101906104439190610c5e565b6040516001600160e01b031960e085901b1681526001600160a01b03909216600483015260248201526044016020604051808303815f875af115801561048b573d5f5f3e3d5ffd5b505050506040513d601f19601f820116820180604052508101906104af9190610c75565b506040516370a0823160e01b81523060048201526001600160a01b0380861691635c11d795918816906370a0823190602401602060405180830381865afa1580156104fc573d5f5f3e3d5ffd5b505050506040513d601f19601f820116820180604052508101906105209190610c5e565b5f843061052f426103e8610c05565b6040518663ffffffff1660e01b815260040161054f959493929190610c94565b5f604051808303815f87803b158015610566575f5ffd5b505af1158015610578573d5f5f3e3d5ffd5b50506040513392504780156108fc029250905f818181858888f193505050501580156105a6573d5f5f3e3d5ffd5b505f846001600160a01b031663ad5c46486040518163ffffffff1660e01b8152600401602060405180830381865afa1580156105e4573d5f5f3e3d5ffd5b505050506040513d601f19601f820116820180604052508101906106089190610aab565b6040516370a0823160e01b81523060048201526001600160a01b0391909116906370a0823190602401602060405180830381865afa15801561064c573d5f5f3e3d5ffd5b505050506040513d601f19601f820116820180604052508101906106709190610c5e565b111561081b57836001600160a01b031663ad5c46486040518163ffffffff1660e01b8152600401602060405180830381865afa1580156106b2573d5f5f3e3d5ffd5b505050506040513d601f19601f820116820180604052508101906106d69190610aab565b6001600160a01b031663a9059cbb33866001600160a01b031663ad5c46486040518163ffffffff1660e01b8152600401602060405180830381865afa158015610721573d5f5f3e3d5ffd5b505050506040513d601f19601f820116820180604052508101906107459190610aab565b6040516370a0823160e01b81523060048201526001600160a01b0391909116906370a0823190602401602060405180830381865afa158015610789573d5f5f3e3d5ffd5b505050506040513d601f19601f820116820180604052508101906107ad9190610c5e565b6040516001600160e01b031960e085901b1681526001600160a01b03909216600483015260248201526044016020604051808303815f875af11580156107f5573d5f5f3e3d5ffd5b505050506040513d601f19601f820116820180604052508101906108199190610c75565b505b6040516370a0823160e01b81523060048201525f906001600160a01b038716906370a0823190602401602060405180830381865afa15801561085f573d5f5f3e3d5ffd5b505050506040513d601f19601f820116820180604052508101906108839190610c5e565b1115610967576040516370a0823160e01b81523060048201526001600160a01b0386169063a9059cbb90339083906370a0823190602401602060405180830381865afa1580156108d5573d5f5f3e3d5ffd5b505050506040513d601f19601f820116820180604052508101906108f99190610c5e565b6040516001600160e01b031960e085901b1681526001600160a01b03909216600483015260248201526044016020604051808303815f875af1158015610941573d5f5f3e3d5ffd5b505050506040513d601f19601f820116820180604052508101906109659190610c75565b505b5050505050565b6109b38282604051602401610984929190610cfd565b60408051601f198184030181529190526020810180516001600160e01b031663319af33360e01b179052610a3e565b5050565b6109fa816040516024016109cb9190610d26565b60408051601f198184030181529190526020810180516001600160e01b031663104c13eb60e21b179052610a3e565b50565b6109b38282604051602401610a13929190610d38565b60408051601f198184030181529190526020810180516001600160e01b0316632d839cb360e21b1790525b6109fa815f6a636f6e736f6c652e6c6f6790505f5f835160208501845afa505050565b6001600160a01b03811681146109fa575f5ffd5b5f60208284031215610a85575f5ffd5b8135610a9081610a61565b9392505050565b634e487b7160e01b5f52604160045260245ffd5b5f60208284031215610abb575f5ffd5b8151610a9081610a61565b634e487b7160e01b5f52603260045260245ffd5b5f8151808452602084019350602083015f5b82811015610b135781516001600160a01b0316865260209586019590910190600101610aec565b5093949350505050565b828152604060208201525f610b356040830184610ada565b949350505050565b5f60208284031215610b4d575f5ffd5b815167ffffffffffffffff811115610b63575f5ffd5b8201601f81018413610b73575f5ffd5b805167ffffffffffffffff811115610b8d57610b8d610a97565b8060051b604051601f19603f830116810181811067ffffffffffffffff82111715610bba57610bba610a97565b604052918252602081840181019290810187841115610bd7575f5ffd5b6020850194505b83851015610bfa57845180825260209586019590935001610bde565b509695505050505050565b80820180821115610c2457634e487b7160e01b5f52601160045260245ffd5b92915050565b848152608060208201525f610c426080830186610ada565b6001600160a01b03949094166040830152506060015292915050565b5f60208284031215610c6e575f5ffd5b5051919050565b5f60208284031215610c85575f5ffd5b81518015158114610a90575f5ffd5b85815284602082015260a060408201525f610cb260a0830186610ada565b6001600160a01b0394909416606083015250608001529392505050565b5f81518084528060208401602086015e5f602082860101526020601f19601f83011685010191505092915050565b604081525f610d0f6040830185610ccf565b905060018060a01b03831660208301529392505050565b602081525f610a906020830184610ccf565b604081525f610d4a6040830185610ccf565b9050826020830152939250505056fea2646970667358221220b23240f8feed4b6f2275e34aab531bf47affd992b7aa714fd92c3ffec2a3509564736f6c634300081c0033",
  "linkReferences": {},
  "deployedLinkReferences": {},
  "immutableReferences": {},
  "inputSourceName": "contracts/Dex.sol",
  "buildInfoId": "d1e1e8ce248c9a418b2cd58aeb6dcc2b82338cb9"
}